:020000040030CA
:1000000000000220150430002D04300031043000BF
:1000100035043000390430003D0430000000000099
:10002000000000000000000000000000410430005B
:100030004504300000000000490430004D04300049
:100040005104300055043000590430005D04300084
:1000500061043000650430006904300000000000D5
:100060006D043000710430007504300079043000F4
:100070007D043000810430008504300089043000A4
:100080008D04300091043000950430009904300054
:100090009D043000A1043000A5043000A904300004
:1000A000AD043000B1043000B5043000B9043000B4
:1000B000BD043000C1043000C5043000C904300064
:1000C000CD043000D1043000D5043000D904300014
:1000D000DD0430000000000000000000E1043000FA
:1000E000E5043000E9043000ED043000F104300094
:1000F000F5043000F9043000FD0430000105300043
:1001000005053000090530000D05300011053000EF
:1001100000000000000000000000000000000000DF
:1001200015053000190530001D053000210530008F
:1001300025053000290530002D053000310530003F
:1001400035053000390530003D05300041053000EF
:10015000000000000000000000000000000000009F
:1001600045053000490530004D053000510530008F
:100170005505300059053000000000000000000067
:100180005D053000610530006505300000000000AD
:10019000690530006D0530007105300075053000CF
:1001A000790530007D05300081053000850530007F
:1001B000000000000000000000000000000000003F
:1001C000890530008D05300091053000950530001F
:1001D000990530009D053000A1053000A5053000CF
:1001E000A9053000AD05300000000000000000004F
:1001F00000000000000000000000000000000000FF
:10020000B1053000B5053000B9053000BD0530003E
:10021000C1053000C50530000000000000000000EE
:1002200000000000000000000000000000000000CE
:100230000000000000000000C9053000CD053000BE
:10024000D1053000D5053000D9053000DD0530007E
:10025000E1053000E5053000E9053000ED0530002E
:10026000F1053000F5053000F9053000FD053000DE
:100270000106300005063000090630000D0630008A
:100280001106300015063000190630001D0630003A
:100290002106300025063000290630002D063000EA
:1002A0003106300035063000390630003D0630009A
:1002B0004106300045063000490630004D0630004A
:1002C0005106300055063000590630005D063000FA
:1002D00061063000650630000000000000000000EC
:1002E000690630006D0630000000000000000000CC
:1002F0007106300000000000000000000000000057
:1003000075063000790630007D0630008106300029
:1003100085063000890630008D06300000000000A0
:100320009106300095063000990630009D06300099
:10033000A1063000000000000000000000000000E6
:10034000A5063000A90630000000000000000000F3
:10035000000000000000000000000000000000009D
:10036000000000000000000000000000000000008D
:10037000000000000000000000000000000000007D
:10038000000000000000000000000000000000006D
:10039000000000000000000000000000000000005D
:1003A000000000000000000000000000000000004D
:1003B000000000000000000000000000000000003D
:1003C000000000000000000000000000000000002D
:1003D000000000000000000000000000000000001D
:1003E000000000000000000000000000000000000D
:1003F00000000000000000000000000000000000FD
:10040000DFF80CD000F028FB0048004749343000EA
:100410000000022072B6A648A64901600A6882F36D
:100420000888A548804762B6A4480047A44800470A
:10043000A4480047A4480047A4480047A4480047F0
:10044000A4480047A4480047A4480047A4480047E0
:10045000A4480047A4480047A4480047A4480047D0
:10046000A4480047A4480047A4480047A4480047C0
:1006A000A4480047A4480047A4480047FEE7FEE7E7
:1006B00008ED00E000003000812C30000104300023
:1006C000AF063000AD063000AF063000AF06300098
:1006D000AF063000AF063000AF063000AF06300086
:1006E000612C3000AF063000AF063000AF0630009E
:1006F000AF063000AF063000AF063000AF06300066
:1007000069113000791130008911300099113000E1
:10071000AF063000AF063000AF063000AF06300045
:10072000AF063000AF063000AF063000AF06300035
:10073000AF063000AF063000AF063000AF06300025
:10074000AF063000AF063000AF063000AF06300015
:10075000AF063000AF063000AF063000AF06300005
:10076000AF063000AF063000AF063000AF063000F5
:10077000AF063000AF063000AF063000AF063000E5
:10078000AF063000AF063000AF063000AF063000D5
:10079000AF063000AF063000AF063000AF063000C5
:1007A000AF063000AF063000AF063000AF063000B5
:1007B000AF063000AF063000AF063000AF063000A5
:1007C000AF063000AF063000AF063000AF06300095
:1007D000AF063000AF063000AF063000AF06300085
:1007E000AF063000AF063000AF063000AF06300075
:1007F000AF063000AF063000AF063000AF06300065
:10080000AF063000AF063000AF063000AF06300054
:10081000AF063000AF063000AF063000AF06300044
:10082000AF063000AF063000AF063000AF06300034
:10083000AF063000AF063000AF063000AF06300024
:10084000AF063000AF063000AF063000AF06300014
:10085000AF063000AF063000AF063000AF06300004
:10086000AF063000AF063000AF063000AF063000F4
:10087000AF063000AF063000AF063000AF063000E4
:10088000AF063000AF063000AF063000AF063000D4
:10089000AF063000AF063000AF063000AF063000C4
:1008A000AF063000AF063000AF063000AF063000B4
:1008B000AF063000AF063000AF063000AF063000A4
:1008C000AF063000AF063000AF063000AF06300094
:1008D000AF063000AF063000AF063000AF06300084
:1008E000AF063000A9123000C1123000D91230001A
:1008F000F11230000913300021133000AF06300030
:10090000AF063000AF063000992C3000C12C30000B
:10091000F12C3000212D3000AF063000AF06300042
:10092000AF063000AF063000AF063000AF06300033
:10093000AF063000AF063000AF063000AF06300023
:100940002DE9F05F0546002092469B468846064604
:10095000814640241BE0284641464746224600F097
:100960006BF853465A46C01A914110D311461846A7
:10097000224600F052F82D1A67EB01084F46224636
:100980000120002100F049F817EB00094E41201E1C
:10099000A4F10104DFDC484631462A464346BDE85F
:1009A000F09F10B540EA01040346A40703D009E014
:1009B00010C9121F10C3042AFAD203E011F8014B28
:1009C00003F8014B521EF9D210BDD2B201E000F87B
:1009D000012B491EFBD270470022F6E710B51346E3
:1009E0000A4604461946FFF7F0FF204610BD30B511
:1009F0000B46014600202022012409E021FA02F5DD
:100A00009D4205D303FA02F5491B04FA02F5284476
:100A1000151EA2F10102F1DC30BD202A04DB203AD0
:100A200000FA02F1002070479140C2F1200320FA41
:100A300003F3194390407047202A04DB203A21FA3F
:100A400002F00021704721FA02F3D040C2F12002E7
:100A50009140084319467047064C074D06E0E06890
:100A600040F0010394E8070098471034AC42F6D3F5
:100A7000FFF7CAFC683B3000883B300000000000F4
:100A80004EF62450CEF20000BFF35F8F016821F4D0
:100A900080310160016F21F001010167BFF34F8FC9
:100AA000BFF36F8F704700004EF624500521CEF241
:100AB0000000BFF35F8F0167016841F4803101607E
:100AC000BFF34F8FBFF36F8F70470000000000002F
:100AD00010B540F20C040821C2F20004204600F0D8
:100AE00007F804F12000062100F002F810BD000014
:100AF000002908BF70474EF698520438CEF2000223
:100B0000013950F8043F42F8043FF9D17047000022
:100B100070B582B040F2101642F60054C2F20006E0
:100B2000C0F231147460746101F086FF4AF2003340
:100B30000120C1F2E11340F201220021009121467F
:100B400001F0BAFE4BF200050120C0F6713540F20B
:100B500001220221009121462B4601F091FD70688F
:100B600001F0F2FBB0607069B56101F05DFBF0610E
:100B7000B0684108C6E903114AF2A551C5F65A21E9
:100B8000316040F20401C2F20001086002B070BDA1
:100B900080B501F0ADFC00BF01F03EFC0028FBD0A9
:100BA00000F002F880BD000080B541F6E07040F230
:100BB0001011C4F20000C2F200012022FFF7F1FE82
:100BC00080BD00000000000010B584B00024C4F215
:100BD0002024204600F080F80520002101F0E0FCF0
:100BE00001F0F6FA01208DF8000001944FF4E13095
:100BF000029000F019F80390684600F0D9F800B1AF
:100C0000FEE704B010BD000080B541F20000C4F260
:100C1000202000F061F840F20510012101F0C0FC35
:100C200080BD00000000000040F21010C2F2000081
:100C3000006970470000000040F21010C2F200008E
:100C4000006970470000000080B5FFF761FF00F009
:100C50000FF8FFF7B9FF00F003F880BD00000000B7
:100C600080B5FFF795FFFFF7CFFF80BD00000000C4
:100C7000B0B54EF614540025CEF20004BFF34F8FEA
:100C8000BFF36F8F206820F400302060C4F83C521E
:100C9000BFF34F8FBFF36F8FFFF7F2FEFFF718FF21
:100CA000FFF702FF2068800348BFB0BDBFF34F8F3E
:100CB000BFF36F8FC4F83C52BFF34F8FBFF36F8FFA
:100CC000206840F400302060BFF34F8FBFF36F8F78
:100CD000B0BD00000000000000F1204000F1EF5026
:100CE0004FEA3031032988BF704770B50DA011A2BB
:100CF00014A318A650F8210052F8214053F82150AF
:100D000056F8216000F03CF90121204600F0E4F89B
:100D1000284600F035F90121304600F0DDF8BDE845
:100D2000704070470F002A00050056000600590069
:100D300006004C002A000000560000005900000088
:100D40004C0000000F002B000500570006005A0061
:100D500006004D002B000000570000005A00000064
:100D60004D000000000000002DE9F04184B00DF1BD
:100D70000408064640460027CDE9027714460D4692
:100D8000019702F00DF80320ADF808003046414607
:100D9000224601958DF80A7002F072F804B0BDE8A1
:100DA000F08100000000000080B502F0ADF980BDC8
:100DB00070B558B106780546012E09D12A1D07CA1B
:100DC000FFF7D2FF044638B1204670BD022070BD47
:100DD0000324012EF8D108E040F284210024C2F25D
:100DE000000168680860012EEED140F25C0000212D
:100DF000C2F200004FF4806200234FF0FF3040F257
:100E0000B0000021C2F200004FF4806200234FF0D6
:100E1000FF3040F200000021C2F200004FF4806277
:100E200000234FF0FF30204670BD0000000000009E
:100E300010B5044600F028F800281CBFC4F3471082
:100E400010BD43F66A2003A1C0F23000CD2202F0AB
:100E5000BFF900BF2E2E2F2E2E2F2E2E2F2E2E2FEF
:100E60002E2E2F2E2E2F2E2E2F64726976657273E2
:100E70002F6770696F2F6874655F6770696F2E6880
:100E800000000000000000000021A92838BF012157
:100E90000846704700000000B0B50C460546FFF755
:100EA000C7FF0C22502302EA55021C2142EAC0105F
:100EB000C4F2301301EA85010F228A40C55825EAA1
:100EC0000202C25004F00F0202FA01F1C2581143AB
:100ED000C150B0BD0000000070B500260C460546AC
:100EE000C4F23016FFF7A4FF05F01F010122E3074B
:100EF00002FA01F106EBC01202D193690B4301E043
:100F000093698B439361A20704D406EBC012136A62
:100F10008B4303E006EBC012136A0B4313622207F4
:100F200004D406EBC012936E0B4303E006EBC01231
:100F3000936E8B439366E20604D406EBC012D36E25
:100F40008B4303E006EBC012D36E0B43D366A206BD
:100F500004D406EBC012136F8B4303E006EBC01200
:100F6000136F0B4306EBC01013676206426F54BF4A
:100F700022EA01011143416770BD0000000000003A
:100F800010B50446000CFFF753FF0421032301EAC8
:100F9000944104F0030C41EAC0101E2140F080404F
:100FA00001EAD43140F098708B40C2689A43C26025
:100FB000C4F38102046C24EA03038A401A430264E6
:100FC0000CFA01F1C2681143C16010BD00000000BD
:100FD00070B586B0044643F2AC700026C0F2300013
:100FE000C4F2202601AD0168019141680291816837
:100FF0000391C1680491006905900A223046294690
:1010000002F082F80C223046294602F0C1F938B1CC
:1010100001A90C22304602F0BBF908B106B070BD40
:101020009DF80510A81C02F053F99DF805102944FD
:101030008A78B2EB102FF1D1C0B2C9788142EDD1DC
:101040009DF80B009DF80C10A080E18006B070BDEB
:1010500070B5F0B001AD044600264FF4DE712846AD
:10106000C4F22026FFF7B8FC40F202100622CEF2AE
:101070000E10019040F2CE30ADF8080030462946FF
:1010800002F042F84FF4DE723046294602F080F951
:1010900040B101A94FF4DE72304602F079F908B18F
:1010A00070B070BDBDF805000104E81C0EBA3146F1
:1010B00002F00EF97119CA78B2EB102FF0D1C0B25C
:1010C00009798142ECD19DF80B009DF80C10A080AD
:1010D000E18070B070BD000070B586B0044643F288
:1010E000C0700026C0F23000C4F2202601AD0168B5
:1010F00001914168029181680391C168049100697E
:1011000005900A223046294601F0FEFF0E223046A5
:10111000294602F03DF938B101A90E22304602F00D
:1011200037F908B106B070BD9DF80510A81C02F093
:10113000CFF89DF8051029448A78B2EB102FF1D131
:10114000C0B2C9788142EDD19DF80B009DF80C101A
:10115000A0809DF80D00E1809DF80E102081618136
:1011600006B070BD0000000080B5002000F034F82B
:10117000BFF34F8F80BD000080B5012000F02CF838
:10118000BFF34F8F80BD000080B5022000F024F82F
:10119000BFF34F8F80BD000080B5032000F01CF826
:1011A000BFF34F8F80BD00004FF0804001210160F0
:1011B000704700000000000080B543F25921002074
:1011C000C0F23001022200F02FF800BF01F02CF92C
:1011D0000028FBD080BD000080B540F28821C2F21B
:1011E000000151F82000002808BF80BD804780BD65
:1011F00080B540F2040C4FF0010EC4F2000C0EFA60
:1012000000FEDCF8000010EA0E0009D0DCF82CE04B
:10121000C1F800E0DCF834101960DCF8301011601F
:10122000002818BF012080BD10B504281BD229B3A7
:1012300040F28823C2F2000353F82040002C1CBF68
:10124000012010BD43F6D41443F82010C0F230043E
:10125000114634F91040204601F0A6FF204601F067
:1012600093FF002010BD43F6212043F63A21C0F23F
:101270003000C0F23001572201F0AAFF43F63A21B4
:1012800002A0C0F23001582201F0A2FF66756E6321
:1012900000000000000000003C21C4F200010860D2
:1012A000704700000000000080B500220020C4F25A
:1012B0001022002100F0A0FABFF34F8F80BD000084
:1012C00080B500220020C4F21022012100F094FA1F
:1012D000BFF34F8F80BD000080B541F200020120B6
:1012E000C4F21022002100F087FABFF34F8F80BDB7
:1012F00080B541F200020120C4F21022012100F069
:101300007BFABFF34F8F80BD80B542F2000202200E
:10131000C4F21022002100F06FFABFF34F8F80BD9E
:1013200080B542F200020220C4F21022012100F036
:1013300063FABFF34F8F80BDB0B5C2B041F2000475
:1013400030A8302100254195C4F21024CDE93F5545
:10135000CDE93D553C95FFF73FFB25A82C21FFF734
:101360003BFB0DA86021FFF737FB0DF1140CFF20AC
:10137000CDE90B55CDE9095538900A203990062161
:101380003A910F21CDE927154FF6FF711422CDE9CF
:101390002A1501214FF40973CDE92C11CDE92E1145
:1013A000CDE90D51CDE90F2180210722CDE91110A2
:1013B0004FF480711993CDE9161003210523CDE96F
:1013C0001A31C0231592CDE91D304FF46D7018917C
:1013D000CDE9210202200C90CDE90A000E2009235C
:1013E000CDE90755CDE90555CDE90355CDE90155C1
:1013F000CDE91F15CDE9232201900822CDE9033163
:101400008CE80D0008913CA920463795CDE9305570
:10141000CDE93255CDE934553B95CDE92555299592
:10142000CDE913551C950995029200F075F901213B
:10143000204600F0D9FC00BF204600F041F9012809
:10144000FAD130A9204600F0E7F925A9204600F09E
:101450007BF801A9204600F04FFC0DA9204600F0C2
:1014600053FA09AA0021204600F026F80021204660
:1014700000F0BAFC204600F023F90028FAD142B06F
:10148000B0BD00000000000010B501F025F84FF4D9
:101490007A7400BF200405D0013C00F04DFF002805
:1014A000F8D001E04FF6FF74A0B2002818BF012069
:1014B00010BD00000000000070B515460C46064641
:1014C00000F00EFAA8B1304600F012F9D6F88410F8
:1014D0004FF6FC72D5E900361140AA6843EA06438C
:1014E000EE6800EB840043EAC26242EA8672425030
:1014F00070BD43F67F2043F6BD21C0F23000C0F23C
:10150000300140F2093201F063FE000000000000EB
:10151000B0B50D46044600F0E3F900281FBF286867
:10152000C4F898006868C4F89C0018BFB0BD43F6C2
:101530007F2043F6BD21C0F23000C0F230014FF4ED
:10154000267201F045FE0000B0B50D46044600F0DD
:10155000C7F900285BD0204600F072FDA06905F1B4
:101560001C03D5E9002120F0240001F0010162F301
:10157000451040EA8100A061D4F880000ECB20F035
:101580003F0C01F0010102F00102A86A614403F07E
:10159000030341EA420100F0030041EA830141EA0A
:1015A0000010C4F88000A8680F2826D8E98A39BB43
:1015B0004FF6FC724FF47023216ACFF6F07203EB02
:1015C00000401140EA6800F4702002F00302084471
:1015D00010442062A06A4FF6F9710840D5E9041260
:1015E00061F3420040EA0240A062A06AA969400893
:1015F000002560F35F01A16204E04FF0FF3501E0D8
:101600004FF0FF35204600F003FD2846B0BD43F6FD
:101610007F2043F6BD21C0F23000C0F2300140F21D
:10162000931201F0D5FD000010283EBF09A151F82A
:101630002000704743F6BD2103A0C0F2300140F204
:10164000665201F0C5FD00BF646C63203C2031365A
:101650000000000000000000010000000200000087
:101660000300000004000000050000000600000068
:1016700007000000080000000C000000100000003F
:1016800014000000180000002000000030000000DE
:10169000400000000000000001A151F82000704748
:1016A0000400000005000000060000000700000024
:1016B000080000000A0000000E00000012000000F8
:1016C00010B5044600F00CF900281EBFA06900F018
:1016D000010010BD43F67F2043F6BD21C0F230006B
:1016E000C0F2300140F2531201F072FD0000000020
:1016F00041F20002C4F2102202F57041904202F55C
:10170000805308BF02F59A31984208BF02F5BC31F8
:101710000846704700000000B0B50C46054600F0D2
:10172000DFF800281FBF2868C1B22160C0F307217D
:101730001FBF6160C0F30341A160C0F303511FBF2D
:10174000E160C0F303612161000F1CBF6061B0BDA7
:1017500043F67F2043F6BD21C0F23000C0F23001D5
:1017600040F2A14201F034FDB0B50C46054600F050
:10177000B7F8D8B12068012805D0002818BFB0BD3F
:1017800005F1A40001E005F1B400006800F07F015C
:101790006160C0F30521A160C0F30541E160C0F3C1
:1017A00000612161C0F340606061B0BD43F67F20FD
:1017B00043F6BD21C0F23000C0F2300140F2BB322E
:1017C00001F006FD0000000010B5044600F088F8A6
:1017D00000281CBFD4F8CC0010BD43F67F2043F690
:1017E000BD21C0F23000C0F2300140F20D4201F0E4
:1017F000EFFC00000000000080B540F29823C2F228
:10180000000303EBC00050F82110002908BF80BD81
:101810001046884780BD000070B50D46044600F0B4
:101820005FF800284DD0204600F00AFCA06947F27E
:10183000403188436E6995E80E5061F3082002F04C
:10184000010203F0010140EA42200CF0010240EAEB
:1018500081300EF0010140EA423006F0010240EA18
:10186000013040EA8210A061686A7F281CD8A96A0A
:101870007F291CD82A6AFF2A1CD8A26C47F67F73DE
:1018800000F07F009A4361F30E201044A064606969
:10189000296A000A60F31F216161E068E96A61F367
:1018A000D7500025E06007E04FF0FF3504E04FF02F
:1018B000FF3501E04FF0FF35204600F0A9FB284638
:1018C00070BD43F67F2043F6BD21C0F23000C0F268
:1018D00030014FF4B77201F07BFC00000000000003
:1018E00041F2000240F48051C4F21022914204BF40
:1018F00001207047A0F18440A0F58110B0FA80F07B
:10190000400970470000000070B50D460446FFF71F
:10191000E7FF002800F0B98003262046CFF60076C6
:1019200000F08EFB686858B1C0B2D4F884102A6801
:101930003140920092B241EA00401043C4F8840062
:10194000E86870B1D4F8881006F50002AB6800F0C2
:101950007F0011409A0092B241EA00401043C4F85F
:101960008800696B0320C0F28000E1B1D4F8A020A8
:101970002B6B01F07F010240AE6B9B009BB206F027
:101980007F0642EA0141EA6B194341EA066141EAF6
:10199000C271C4F8A010D4F8BC10AA6DC90861F3D4
:1019A000DF02C4F8BC20696CD9B1D4F8B02001F0D2
:1019B0007F0110402A6CAB6C920092B203F07F035F
:1019C00040EA0140E96C104340EA036040EAC1701C
:1019D000C4F8B000D4F8BC00E96D61F30610C4F897
:1019E000BC00D4F8AC00296D61F38F00C4F8AC00E2
:1019F000D4F8BC00696D61F30A20C4F8BC00A96A80
:101A00000320C8F2C00099B1D4F8F02000F180435F
:101A10001A406B6A01F03F01EE6A9B0006F03F0638
:101A20009BB242EA0141194341EA0661C4F8F01051
:101A3000D5E905218B184FF0FF36202B20D851EA2D
:101A400002031DD0D4F8C0304FF47C1C18402B6921
:101A50000CEA0242EE699B0061F31D6206F001018F
:101A60009BB210431843002640EA8170C4F8C000BE
:101A7000D4F8C800296AC00860F3DF01C4F8C810B0
:101A8000204600F0C5FA304670BD43F67F2043F68D
:101A9000BD21C0F23000C0F230014FF4F87201F005
:101AA00097FB00000000000080B50620C0F2260071
:101AB000FFF766FA0520C0F24900FFF761FA262019
:101AC0000021FFF7E9F949200021FFF7E5F980BD82
:101AD0002DE9F04381B0144681460D18085820F0D6
:101AE00060422260C0F340726260C0F38072A26004
:101AF000C00FE0606A6801F1080890B22061C2F38B
:101B000003406061C2F30053A361C2F34053E36139
:101B1000C2F30663D20FC4E90832FFF785FD04283B
:101B200023D305F108060025002700BF6069FFF7F1
:101B30007BFD874217D0F81C402834D2F05904EBC3
:101B4000470182B20437C3B2120A4A85C0F3074282
:101B50000B85000EC88560698A85FFF765FD043D29
:101B600028440328E2D8B84400E000276069FFF762
:101B70005BFDB84214D047F0020040281FD204F1A8
:101B8000280258F80910CBB222F8173047F00103A9
:101B90008FB23F0A22F81370C1F3074122F81010E8
:101BA00001B0BDE8F08343F6962043F6BD21C0F2B4
:101BB0003000C0F2300140F2235201F009FB43F63D
:101BC000BD2103A0C0F2300140F22F5201F000FB12
:101BD000286C6F6F70436E74202B203229203C20BC
:101BE0004D43414E5F4D41585F5041594C4F414428
:101BF0005F425954455300002DE9F04F81B09A4699
:101C000091460E460546FFF76BFE002865D0284634
:101C1000FFF76EFD804636B100200021002700242A
:101C2000012E0CD029E0D5F8AC004F46D5F8BC10F9
:101C3000C0F38D04C1F302200121012E1DD1BAF1A0
:101C4000010F0DD0BAF1000F17D1D5F8A000D5F8CB
:101C5000BC10D5F8A420C0F38D0401F0070009E002
:101C6000D5F8B000D5F8BC10D5F8B420C0F38D0479
:101C7000C1F30210C2F30527012129B98EB1012E4B
:101C800023D001B0BDE8F08FDDF828B0FFF704FDE8
:101C900000FB07405A4681004046FFF719FF002E1F
:101CA000EDD1B9F11E0F07D8012000FA09F0C5F8EF
:101CB0009800012EE5D108E009F01F00012101FA8A
:101CC00000F0C5F89C00012EDBD1284651463A466B
:101CD00000F0CEF901B0BDE8F08F43F67F2043F667
:101CE000BD21C0F23000C0F230014FF4297201F082
:101CF0006FFA000000000000B0B50D460446FFF783
:101D0000EFFD002862D0204600F09AF9E8687F28AD
:101D100040D8A9687F2940D86B68FF2B40D8D5F8F8
:101D200000C00022B2EB5C2F3DD101F07F011B020D
:101D30009BB240F2000EC0F2FF1E41EA4060E26931
:101D40000EEA0C41184402F0800208441044E0619D
:101D5000E8690F282AD8A9690F292AD86A691F2A91
:101D60002AD82B691F2B2AD800F00F0002F01F027F
:101D700061F3071003F01F034EF20001E568CFF690
:101D8000E07140EA0220294040EA0340002508446F
:101D9000E06016E04FF0FF3513E04FF0FF3510E044
:101DA0004FF0FF350DE04FF0FF350AE04FF0FF3503
:101DB00007E04FF0FF3504E04FF0FF3501E04FF052
:101DC000FF35204600F024F92846B0BD43F67F20B9
:101DD00043F6BD21C0F23000C0F230014FF4DF7293
:101DE00001F0F6F900000000B0B50D460446FFF71B
:101DF00077FD00281FBFA06965F30000A061B0BD9A
:101E000043F67F2043F6BD21C0F23000C0F230011E
:101E10004FF4A67201F0DCF980B50A2000F0E4F975
:101E20004FF4857000F0E0F940F20A2000F0DCF990
:101E3000FFF72AFB80BD0000B0B50D460446FFF752
:101E40004FFD88B11F2D0CD80120D4F8D010A84028
:101E500041EA0005204600F0DBF80020C4F8D0502D
:101E6000B0BD4FF0FF30B0BD43F67F2043F6BD213B
:101E7000C0F23000C0F230014FF41E7201F0A8F938
:101E80002DE9F04381B015461268814601F108083A
:101E9000D5E90137EE6801EB090442EA437205F126
:101EA000100342EA877242EAC67041F809000DCB7E
:101EB0001205EF6942EA00402A6A40EA435040EACC
:101EC000C75040EA026060602869FFF7ADFB042854
:101ED00023D304F108060024002700BF2869FFF778
:101EE000A3FB874217D0F81C402839D205EB4700E6
:101EF000C18C828C038D408D42EA012141EA03416D
:101F000041EA0060F05128690437FFF78DFB043C7B
:101F100020440328E2D8B84400E000272869FFF7EE
:101F200083FBB84219D047F00300402824D205F1C2
:101F3000240147F0010247F0020331F8122031F882
:101F4000177031F8133031F8100047EA022141EAE6
:101F5000034141EA006048F8090001B0BDE8F083A0
:101F600043F6962043F6BD21C0F23000C0F23001A6
:101F70004FF4AA6201F02CF943F6962043F6BD21F6
:101F8000C0F23000C0F2300140F25B5201F020F9A3
:101F90002DE9F041984615460C460646FFF7A0FC91
:101FA00050B33046FFF7A4FB002C074618BF0025AE
:101FB000012C05D1D6F8C400C0F30445012002E08D
:101FC000B4FA84F04009002808BFBDE8F081D6F8D3
:101FD000C0004FF6FC71D6F8C82000EA010402F0F8
:101FE0000700FFF759FB6843424604EB800138467F
:101FF000FFF746FFBDE8F08143F67F2043F6BD21A1
:10200000C0F23000C0F2300140F2592201F0E0F895
:1020100010B50446FFF764FC00281FBFA06920F03C
:102020000200A06110BD43F67F2043F6BD21C0F23F
:102030003000C0F2300140F2065201F0C9F8000051
:1020400010B50446FFF74CFC00281FBFA06940F004
:102050000200A06110BD43F67F2043F6BD21C0F20F
:102060003000C0F2300140F2FF4201F0B1F8000050
:1020700070B515460E460446FFF732FC08B3012E34
:102080000ED09EB9D4F8A000C0F30640A8420DD3EC
:10209000D4F8A80065F30500C4F8A800002070BDBE
:1020A000D4F8B000C0F30640A84202D24FF0FF308F
:1020B00070BDD4F8B80065F30500C4F8B80000207E
:1020C00070BD43F67F2043F6BD21C0F23000C0F260
:1020D000300140F2DA3201F07BF80000000000002D
:1020E000B0B5A1FB000444F24025C0F20F05002367
:1020F00021462A46FEF724FCAC421FD24EF6FC5382
:1021000041F20002CEF20003CEF200021D6845F05B
:1021100080751D6013689B011BD4002353601568F4
:1021200045F00105156000BF55682D1A73EB0105D8
:10213000FAD3106820F001001060B0BD43F6DC1047
:1021400043F6F011C0F23000C0F230018D2201F0F0
:102150003FF843F6F01103A0C0F23001972201F0DE
:1021600037F800BF21284457542D3E4354524C2089
:1021700026204457545F4354524C5F4E4F435943BB
:10218000434E545F4D736B290000000000000000B7
:1021900042F23C010028C4F200110A6822F0804299
:1021A00018BF02F180420A60704700000000000082
:1021B00042F228010028C4F200110A6822F080428D
:1021C00018BF02F180420A60704700000000000062
:1021D00042F26040C4F20010016841F00101016068
:1021E00070470000000000007C2142F2444301EAF5
:1021F0008001C4F20013C0F30420012202FA00F0AF
:10220000CA581043C850704742F21400C4F200107C
:10221000006800F00300704742F24800C4F200106A
:10222000006800F00300704710B52DED028B0446E6
:10223000FFF7EAFF002804BF49F28064C0F2980467
:1022400000F05AF8B8B300F047F8A0B300F03CF83B
:1022500000EE104AB8EE408A40B100F045F8023076
:1022600000EE100AB8EE400A88EE008A00F054F83A
:10227000C0F10F0400F048F80121A1404A1E01EE10
:10228000101A0240E04000EE102A02EE100AB8EEEA
:10229000411AB8EE400AB8EE422A80EE010AB6EEC4
:1022A000001A30EE020A28EE000A00EE018ABCEEA7
:1022B000C80A10EE104AFFF7AFFF24FA00F0BDEC99
:1022C000028B10BD0000000042F21C00C4F200109E
:1022D000006800F00100704742F23000C4F20010C4
:1022E0000068C0F34000704742F21C00C4F20010C6
:1022F0000068C0F3C250704742F23000C4F20010D0
:10230000006800F00100704742F23C00C4F2001087
:1023100000686FF3DF40704742F23C00C4F20010E7
:102320000068C0F3C240704742F24000C4F200109F
:10233000006800F00100704742F62810C4F2001057
:10234000006800F00100704770B52DED028B49F276
:1023500080640546C0F2980400F0D6F8002855D1F4
:1023600000F06AF840F00200022818BF2C4600F086
:1023700083F8002842D000F06FF800283ED000F02B
:1023800063F800EE104AB8EE408A40B100F06CF8F5
:10239000023000EE100AB8EE400A88EE008A00F023
:1023A0007BF8C0F10F0600F06FF8044620FA06F53E
:1023B00000F082F820B100EE105AB8EE400A13E0A7
:1023C000012002EE105AB040411E01EE100A2140D9
:1023D000B8EE422A00EE101AB8EE411AB8EE400AE2
:1023E00080EE010A30EE020A28EE000AB6EE001A6C
:1023F00000EE018ABCEEC80A10EE104A00F064F844
:1024000020B100F061F84000B4FBF0F42046BDECD0
:10241000028B70BD0000000042F6E800C4F200101C
:10242000006800F00100704742F6E800C4F20010B6
:10243000006800F00100704742F21000C4F2001082
:10244000006800F00300704742F21C00C4F2001064
:102450000068C0F38060704742F21C00C4F20010B4
:102460000068C0F34000704742F21C00C4F2001044
:102470000068C0F3C250704742F21C00C4F2001062
:10248000006800F00100704742F22800C4F200101A
:1024900000686FF3DF40704742F22800C4F200107A
:1024A0000068C0F3C240704742F22C00C4F2001032
:1024B000006800F00100704742F22800C4F20010EA
:1024C0000068C0F38070704742F24400C4F200100C
:1024D000006800F03F00704742F62410C4F200107C
:1024E000016841F001010160704700000000000038
:1024F00042F6E400C4F20010016841F001010160FD
:10250000704700000000000042F25C00C4F20010BE
:10251000006800F00100704742F230010128C4F267
:1025200000110A6822F0006218BF02F100620A601E
:10253000704700000000000042F25C00C4F200108E
:10254000016841F0020101607047000000000000D6
:1025500042F21C010128C4F200110A6822F0006254
:1025600018BF02F100620A6070470000000000001E
:1025700042F21401C4F200110A6860F301020A6019
:10258000704700000000000042F21001C4F2001188
:102590000A6860F301020A60704700000000000052
:1025A0007C22012302EA80020029C0F3042003FAFE
:1025B00000F141F6AC10C4F20010135814BF1943D7
:1025C00023EA01011150704710B5022815D00128E7
:1025D00022D0002818BF10BD002000F0ADFA40F254
:1025E00004044FF49670C2F200042168FFF778FDEE
:1025F0000020FFF7C9FF216807E00220FFF7C4FFB2
:1026000040F20400C2F2000001684FF49670FFF738
:1026100067FD00F085FA10BD00F002F810BD000063
:1026200010B5012000F088FA40F204044FF49670CF
:10263000C2F200042168FFF753FD0120FFF7A4FF59
:10264000FFF762FF002808BF10BD00BFFFF774FF4F
:1026500021684FF49670FFF743FD0120FFF794FFC8
:10266000FFF752FF0028F1D110BD0000000000006C
:1026700042F24801C4F200110860704700000000F7
:102680002DE9F041C0B21D4617460E46DDF8188010
:10269000FFF76EFF4046FFF7EBFF002000F0ACF8BD
:1026A000F80702D10120BDE8F08149F600004EF69E
:1026B0008051CFF27660C1F23E71284400248842F6
:1026C00000F28380B542C0F08080380AC7B2002F84
:1026D0007BD04AF200310020C1F2E1118D4288BF67
:1026E000012000F0C9F80020FFF7C2FF0120FFF72A
:1026F00013FF002000F09CF8002000F0CDF8012F1F
:1027000003D1002000F068F805E0012000F064F833
:10271000B81E00F07DF800F0A3F800EE106A01EE9C
:10272000107A6800B8EE400AB8EE411A80EE010A4D
:1027300001EE100AB8EE411A81EE000AB8EE001A56
:1027400030EE010ABCEEC01A11EE100AFF2802D9C1
:102750000020BDE8F081B6EEC01A30EE410A9FEDD0
:102760001C1A20EE010ABCEEC00A10EE104A44EA20
:10277000C02000F069F8B4FA84F04009FFF708FDC2
:10278000012000F089F840F204040A20C2F200049B
:102790002168FFF7A5FC012000F04AF8216802201B
:1027A000FFF79EFC0020FFF7B7FE21682820FFF707
:1027B00097FC00BFFFF7B8FD0028FBD04046FFF7AD
:1027C00057FF0120012400F017F82046BDE8F081F2
:1027D000000000450000000042F230010028C4F271
:1027E00000110A6822F0806218BF02F180620A605C
:1027F000704700000000000042F230010028C4F2DF
:1028000000110A6822F0020218BF02320A60704703
:1028100042F2300100F00700C4F200110A6822F011
:1028200060720A600A6842EAC0500860704700009F
:1028300042F230010028C4F200110A6822F00102BD
:1028400018BF01320A60704742F23C01C4F2001125
:102850000A6860F312020A6070470000000000007E
:1028600042F23C000422C4F20010016862F3D54138
:10287000016070470000000042F230010028C4F2FD
:1028800000110A6822F4800218BF02F580020A6073
:10289000704700000000000042F230010028C4F23E
:1028A00000110A6822F4803218BF02F580320A60F3
:1028B00070470000000000002DE9F0411D4617465A
:1028C0000E460446FFF720FE10B10020BDE8F0815F
:1028D000E0B2DDF81880FFF777FE404600F018F907
:1028E000002000F0B5F8F80702D10120BDE8F08122
:1028F00049F600004EF68051CFF27660C1F23E718B
:1029000028440024884200F28280B542C0F07F80D3
:10291000380AC7B2002F7AD04AF200310020C1F243
:10292000E1118D4288BF012000F0D2F8002000F0B4
:10293000EFF80120FFF70CFE002000F0A5F80020C2
:1029400000F0D6F8012F03D1002000F065F805E073
:10295000012000F061F8B81E00F086F800F0ACF835
:1029600000EE106A01EE107A6800B8EE400AB8EE88
:10297000411A80EE010A01EE100AB8EE411A81EE0A
:10298000000AB8EE001A30EE010ABCEEC01A11EED1
:10299000100AFF2802D90020BDE8F081B6EEC01A67
:1029A00030EE410A9FED1B1A20EE010ABCEEC00A70
:1029B00010EE104A44EAC02000F072F8B4FA84F035
:1029C0004009FFF7F5FB012000F092F840F2040403
:1029D0000A20C2F200042168FFF782FB012000F008
:1029E00053F821680220FFF77BFB0020FFF7B0FDC2
:1029F00021682820FFF774FBFFF756FD0028FBD065
:102A0000404600F085F80120012400F021F820461E
:102A1000BDE8F0810000004542F21C010028C4F22C
:102A200000110A6822F0806218BF02F180620A6019
:102A3000704700000000000042F21C00C4F20010C9
:102A4000016821F0020101607047000000000000F1
:102A500042F21C010028C4F200110A6822F00202AE
:102A600018BF02320A60704742F21C0100F00700F2
:102A7000C4F200110A6822F060720A600A6842EA31
:102A8000C05008607047000042F21C010028C4F2E8
:102A900000110A6822F0010218BF01320A60704773
:102AA00042F22801C4F200110A6860F312020A60BF
:102AB000704700000000000042F228000422C4F227
:102AC0000010016862F3D54101607047000000000A
:102AD00042F21C010028C4F200110A6822F48002AC
:102AE00018BF02F580020A60704700000000000075
:102AF00042F21C010028C4F200110A6822F480325C
:102B000018BF02F580320A60704700000000000024
:102B100042F24401C4F20011086070470000000056
:102B200042F21000C4F20010016841F0100101608F
:102B3000704700000000000028B1012818BF70474E
:102B40006FF0100001E06FF0080042F21001C4F2D3
:102B500000110A6810400860704700000000000083
:102B600080B584B005218DF80B10017882788DF83E
:102B70000C1001798DF80D2080798DF80E108DF8EC
:102B80000F000DF10B00052100F0A2FB40F20251F5
:102B9000ADF801109DF80B108DF809008DF80310A9
:102BA00003990191010A03208DF80A0000208DF895
:102BB0000810C4F220200DF101010A2200F0A4FA4D
:102BC00004B080BD0000000080B584B040F28530C4
:102BD000ADF80C004FF04D40029040F2025001A9B8
:102BE000C0F20600019000200A22C4F2202000F06A
:102BF0008BFA04B080BD000080B584B006218DF84A
:102C00000B10017882788DF80C1001798DF80D2069
:102C100080798DF80E108DF80F000DF10B00052155
:102C200000F056FB40F20251ADF801109DF80B1078
:102C30008DF809008DF8031003990191010A032012
:102C40008DF80A0000208DF80810C4F220200DF144
:102C500001010A2200F058FA04B080BD0000000013
:102C600040F2080040F20C11C2F20000C2F2000172
:102C700000780A6810440860BFF34F8F7047000067
:102C80004EF68850CEF20000016841F470010160F8
:102C9000704700000000000080B540F24030C2F2F2
:102CA000000002683AB140F2B0210020C2F20001F7
:102CB000C4F220209047BFF34F8F80BD000000007A
:102CC00080B540F24030C2F20000426852B140F29A
:102CD000B020C2F2000000F1240141F20000C4F271
:102CE00020209047BFF34F8F80BD00000000000000
:102CF00080B540F24030C2F20000826852B140F22A
:102D0000B020C2F2000000F1480142F20000C4F21B
:102D100020209047BFF34F8F80BD000000000000CF
:102D200080B540F24030C2F20000C26852B140F2B9
:102D3000B020C2F2000000F16C0143F20000C4F2C6
:102D400020209047BFF34F8F80BD0000000000009F
:102D500000281FBF016F21F001010167704743F692
:102D60001C3043F62831C0F23000C0F2300140F28E
:102D7000095200F02DFA000000281FBF016921F060
:102D800010010161704743F61C3043F62831C0F250
:102D90003000C0F2300140F2ED4200F019FA0000BC
:102DA00000281FBF4FF4E1310160032181801FBF64
:102DB000002181710122A0F807201CBF41727047D9
:102DC00043F6213043F6EF21C0F23000C0F230016B
:102DD000972200F0FDF9000000281CBF40697047F1
:102DE00043F61C3003A1C0F230004FF4B57200F07E
:102DF000EFF900BF2E2E2F2E2E2F2E2E2F2E2E2F00
:102E00002E2E2F2E2E2F2E2E2F6472697665727322
:102E10002F756172745C6874655F756172742E6879
:102E2000000000000000000000281EBFD0F8800055
:102E3000C0B2704743F61C3043F62831C0F2300070
:102E4000C0F2300140F2351200F0C2F9000000007B
:102E500000281FBFD0F8A41021F00101C0F8A41071
:102E6000704743F61C3043F62831C0F23000C0F200
:102E7000300140F25E5200F0ABF9000000000000AB
:102E800070B5002840D00D46002948D004461646AB
:102E900000F052F810B14FF4817070BD2A682046DE
:102EA000314600F0B9F8002818BF70BD68792A795A
:102EB000AB79411E02F00300032963F382000AD8B4
:102EC000DFE801F002040608083004E0183002E0F0
:102ED000283000E03830E0602046FFF739FF204618
:102EE000FFF74AFF2046FFF7B3FFE87948B1687A59
:102EF000297A8001C0B261F305100730A06000207C
:102F000070BD0020A06070BD43F61C3043F6EF2179
:102F1000C0F23000C0F23001A52200F059F943F6AA
:102F2000213043F6EF21C0F23000C0F23001A6227A
:102F300000F04EF90000000000281EBFC06F00F036
:102F40000100704743F61C3043F62831C0F23000D0
:102F5000C0F2300140F2E51200F03AF90000000042
:102F600028B1806810F0C00018BF0120704743F6F8
:102F70001C3043F62831C0F23000C0F230014FF46B
:102F8000937200F025F9000010B580B10446FFF7F8
:102F9000E7FF40B12046FFF747FF014600208029A8
:102FA00038BF012010BD204600F00EF810BD43F6DA
:102FB0001C3043F62831C0F23000C0F2300140F23C
:102FC000AF1200F005F9000000281EBF4069C0F3F1
:102FD0004010704743F61C3043F62831C0F23000F1
:102FE000C0F230014FF4C67200F0F2F800000000A9
:102FF00000281EBF4069C0F38010704743F61C30A4
:1030000043F62831C0F23000C0F2300140F29D1288
:1030100000F0DEF800000000B0B5002847D000291D
:1030200050D0002A56D0044601EB810040004FF6F4
:10303000F5751101C0F20905B0FBF1F14B1FAB4270
:1030400002D94FF48070B0BD4CF6CD430531CCF6BB
:10305000CC43A1FB0315ED082901B0FBF1F00530CD
:10306000A0FB0301A2EBD100B2EBD10F38BFC2EB42
:10307000D10064214843B0EB420F02D940F2011065
:10308000B0BD2046FFF758FF10B14FF48170B0BDBE
:10309000E06840F08000E060E8B22060C5F30720FF
:1030A0006060E06820F08000E0600020B0BD43F682
:1030B0001C3043F6EF21C0F23000C0F23001FE2296
:1030C00000F086F843F6EF210BA0C0F23001FF229A
:1030D00000F07EF843F6EF2103A0C0F230014FF478
:1030E000807200F075F800BF6261756452617465AA
:1030F000203E20305500000066726571496E487AA6
:10310000203E203055000000F0B581B010B30E46CF
:1031100061B30446154672B14FF07C472046FFF775
:1031200033FF18B90137F9D30EE000BF16F8010BD1
:10313000013D2060F0D14FF07C4500BF2046FFF7F5
:1031400057FF20B90135F9D3042001B0F0BD0020AC
:1031500001B0F0BD43F61C3043F6EF21C0F2300061
:10316000C0F230014FF4977200F032F843F6EA20D3
:1031700043F6EF21C0F23000C0F2300140F22F12CE
:1031800000F026F800000000002848BF704700F05B
:103190001F01012202FA01F14EF200124009CEF2A3
:1031A000000242F8201070474EF6145300F00F0250
:1031B000CEF20003B0F1FF3F1A4400F16043C8BFF4
:1031C00003F56442480110707047000000000000E1
:1031D000064609A014460D4600F0ECF90AA0314657
:1031E00000F0E8F90CA0294600F0E4F90EA0214611
:1031F00000F0E0F900BEFDE741737365727420458D
:1032000052524F520D0A00000945787072203A2040
:1032100025730D0A000000000946696C65203A20FC
:1032200025730D0A00000000094C696E65203A20E4
:1032300025640D0A00000000C0F383524FF4E061E2
:1032400001EA9041F023114403EA90326FF39F406A
:10325000114440EA8140704770B584B000208DF879
:1032600003009DF80300C0070ED103AC02AD01AE10
:10327000002021462A463346FDF7BAFF8DF80300A9
:103280009DF80300C007F3D0039845F2AA51884285
:103290000FD045F2CC5188420ED045F2BB51884246
:1032A00014D1DDE90110016045F65B30C5F65A2006
:1032B00008E00298006805E0FDF776FC41F20000A6
:1032C000C4F20000FDF7E8FFFDF76EFF04B070BD2B
:1032D00080B599B143F2D47C421E0020C0F2300C7C
:1032E0001FFA80FE12F8013F013983EA1E233CF8E1
:1032F000133083EA0020F3D180B280BD002080B279
:1033000080BD00000000000080B50188022902D2C3
:10331000FDF79EFE80BD07D14188062915D00529FD
:1033200004D1FDF7D9FE80BD418801B180BD8188FF
:10333000C28842EA012103290AD002290CD00029BF
:1033400018BF80BDFFF740FC80BDFDF741FE80BD8A
:103350000830FFF751FC80BD0830FFF701FC80BD4D
:1033600010B582B040F28421C2F200010B684BB16B
:1033700004468DF807000DF1070101221846FDF7FC
:1033800013FD01E04FF0FF34204602B010BD0000F5
:103390002DE9F04100283FD08846002947D0044657
:1033A0001546002702E000BF012078BB8DB34FF027
:1033B0007F4600BF2046FFF70FFD0136F4D2C1065D
:1033C000F8D082070CD400290DD441070ED4000791
:1033D0000FD4206808F8010B013D002701200CE004
:1033E00040F2031708E04FF4837705E04FF482774B
:1033F00002E040F2051700BF002000284FF0030054
:1034000018BF002718BF00200028CFD0032818BFFE
:1034100004273846BDE8F08143F61C3043F65531A9
:10342000C0F23000C0F230011622FFF7D1FE43F6A1
:10343000553103A0C0F230011722FFF7C9FE00BFCB
:103440006461746100000000B0B041F2000405A89E
:10345000A421C4F21024FDF7BFFA00262E96FDF732
:10346000F3FBFDF7A9FE02AD2846FFF799FC4FF4E8
:10347000E1300290FDF7E0FB024604F57F2029468B
:103480000190FFF7FDFCFEF70FFBFEF7C5FC40F2D5
:10349000301AA822C2F2000A40F2341BC2F2000B1A
:1034A0000820DAF800100990CDE9056601FB02F367
:1034B0000A9601FB02B10B96CDE907660C96AA228B
:1034C0000D92C1E90166C1E90366C1E90566C1E97A
:1034D00007664E6226314BF8036000BF013821F8C1
:1034E000026FFBD1FDF728FF40F244070120C2F232
:1034F000000740F2DC16C2F200064FF00008386008
:1035000005A800F124054FF0A80903E0204639463C
:10351000FEF72AF978680028F8D00121002201235B
:1035200020460096FEF768FBDAF80000A822314634
:10353000C7F8048000FB09B0FDF733FA20462EA936
:10354000CDE92E88FDF7E4FFBA6801212046FEF799
:103550008FFDDAF8000000FB09F05BF80000FFF7D0
:103560006BFEDAF8001005908022284601FB09B1B5
:103570002831FDF716FAFDF75FFB0246019802A914
:10358000FFF77EFC40F204112846C2F20001FFF76B
:10359000BBFE00210122204605ABFEF7F9FC01210C
:1035A0002046FEF749FC00BF2046FEF70DF9002833
:1035B000FAD1AFE70FB4054B10B503A9044A02983E
:1035C00000F018F810BC5DF814FB00006133300007
:1035D000B000002002E008C8121F08C1002AFAD17A
:1035E00070477047002001E001C1121F002AFBD183
:1035F000704700002DE9FF4F8BB09A460F460546F5
:10360000002606E025280BD052460D9990476D1CE8
:10361000761C28780028F5D10FB03046BDE8F08F31
:103620000024A0460122604900E0044315F8013F50
:10363000203B02FA03F00842F7D128782E2817D150
:1036400015F8010F44F004042A280ED06FF02F0261
:103650002878A0F1300109290AD808EB880102EB8B
:10366000410100EB01086D1CF2E757F8048B6D1C5B
:10367000287869283ED006DC0028CDD063280BD0FE
:10368000642804D136E0732810D075284BD05246F8
:103690000D999047761C85E017F8040B8DF8000013
:1036A00000208DF80100E946012003E057F8049B53
:1036B0004FF0FF3061074FF0000401D40AE0641CB2
:1036C00044450DDA8442FADB19F804100029F6D1DA
:1036D00006E0641C8442FCDB19F804100029F8D1D0
:1036E000264404E019F8010B52460D999047641ED8
:1036F000F8D257E001CF4FF00A0B002802DA40421F
:103700002D2102E0210504D52B218DF82410012163
:1037100003E0E10705D02021F7E70DF1200908912A
:103720000CE00021F9E701CF4FF00A0BF9E7594609
:10373000FDF75DF901F1300209F8012D0028F6D1FD
:10374000ADEB090000F1200B600701D44FF0010838
:10375000D84502DDA8EB0B0000E0002080460024E5
:1037600006E009A85246005D0D999047641C761C3E
:1037700008988442F5DB04E0302052460D999047CA
:10378000761CB8F10001A8F10108F5DC05E019F894
:10379000010B52460D999047761CBBF10001ABF12D
:1037A000010BF4DC6D1C34E709280100020532002E
:1037B0000001007B5C03000000000000000000002E
:1037C00002053200000080D9E5030000000000007F
:1037D0000000000000002110422063308440A5500A
:1037E000C660E770088129914AA16BB18CC1ADD147
:1037F000CEE1EFF13112100273325222B5529442EF
:10380000F772D662399318837BB35AA3BDD39CC396
:10381000FFF3DEE36224433420040114E664C7743A
:10382000A44485546AA54BB528850995EEE5CFF5E6
:10383000ACC58DD55336722611163006D776F6668E
:103840009556B4465BB77AA719973887DFF7FEE736
:103850009DD7BCC7C448E5588668A778400861185A
:1038600002282338CCC9EDD98EE9AFF94889699986
:103870000AA92BB9F55AD44AB77A966A711A500A2E
:10388000333A122AFDDBDCCBBFFB9EEB799B588BD6
:103890003BBB1AABA66C877CE44CC55C222C033C7A
:1038A000600C411CAEED8FFDECCDCDDD2AAD0BBD26
:1038B000688D499D977EB66ED55EF44E133E322ECE
:1038C000511E700E9FFFBEEFDDDFFCCF1BBF3AAF76
:1038D000599F788F8891A981CAB1EBA10CD12DC1D4
:1038E0004EF16FE18010A100C230E320045025406A
:1038F00046706760B9839893FBA3DAB33DC31CD3CA
:103900007FE35EF3B1029012F322D23235421452B9
:1039100077625672EAB5CBA5A89589856EF54FE515
:103920002CD50DC5E234C324A01481046674476409
:1039300024540544DBA7FAB79987B8975FE77EF769
:103940001DC73CD7D326F2369106B0165766767659
:10395000154634564CD96DC90EF92FE9C899E98935
:103960008AB9ABA94458654806782768C018E108A9
:103970008238A3287DCB5CDB3FEB1EFBF98BD89B09
:10398000BBAB9ABB754A545A376A167AF10AD01AF9
:10399000B32A923A2EFD0FED6CDD4DCDAABD8BAD55
:1039A000E89DC98D267C076C645C454CA23C832C49
:1039B000E01CC10C1FEF3EFF5DCF7CDF9BAFBABFA9
:1039C000D98FF89F176E367E554E745E932EB23E99
:1039D000D10EF01E080009000A000B007469636B29
:1039E00073203C3D2055494E5433325F4D415800C1
:1039F0002E2E2F2E2E2F2E2E2F2E2E2F2E2E2F2EE2
:103A00002E2F2E2E2F647269766572732F636F6D61
:103A10006D6F6E2F6874655F636F6D6D6F6E2E6373
:103A200000696E74737263203C206B48414C5F499F
:103A300050435F494E544D4158002E2E2F2E2E2FAD
:103A40002E2E2F2E2E2F2E2E2F2E2E2F2E2E2F645B
:103A50007269766572732F6970632F6874655F632E
:103A60007075315F6970632E63004750494F5F691D
:103A70007350696E56616C69642870696E29004DD7
:103A800043414E5F69734261736556616C69642896
:103A9000626173652900286C6F6F70436E74202B10
:103AA000203329203C204D43414E5F4D41585F500B
:103AB00041594C4F41445F4259544553002E2E2FDB
:103AC0002E2E2F2E2E2F2E2E2F2E2E2F2E2E2F2E11
:103AD0002E2F647269766572732F6D63616E2F6825
:103AE00074655F6D63616E2E630064617461002EA6
:103AF0002E2F2E2E2F2E2E2F2E2E2F2E2E2F2E2EE1
:103B00002F2E2E2F647269766572732F7561727411
:103B10002F6874655F756172742E630062617365EE
:103B200000636F6E666967002E2E2F2E2E2F2E2EAD
:103B30002F2E2E2F2E2E2F2E2E2F2E2E2F647269EB
:103B4000766572732F756172742F6874655F756125
:103B500072742E68002E2E2F2E2E2F6465636F64D4
:103B60006543616E2E630000883B3000000000203A
:103B700044000000D4353000CC3B3000440000202D
:103B80000C030000E435300000000000809698002F
:103B900001000000100000003F00001011000000B4
:103BA00021000B031200200021000C031300300041
:103BB000270002031400201021000C011500002032
:0C3BC00021000B03160000403900101318
:0400000500300401C2
:00000001FF
