:020000040000FA
:1000000000000220150400002D040000310400004F
:1000100035040000390400003D0400000000000029
:10002000000000000000000000000000410400008B
:100030004504000000000000490400004D040000D9
:100040005104000055040000590400005D04000044
:100050006104000065040000690400000000000065
:100060006D040000710400007504000079040000B4
:100070007D04000081040000850400008904000064
:100080008D04000091040000950400009904000014
:100090009D040000A1040000A5040000A9040000C4
:1000A000AD040000B1040000B5040000B904000074
:1000B000BD040000C1040000C5040000C904000024
:1000C000CD040000D1040000D5040000D9040000D4
:1000D000DD0400000000000000000000E10400005A
:1000E000E5040000E9040000ED040000F104000054
:1000F000F5040000F9040000FD0400000105000003
:1001000005050000090500000D05000011050000AF
:1001100000000000000000000000000000000000DF
:1001200015050000190500001D050000210500004F
:1001300025050000290500002D05000031050000FF
:1001400035050000390500003D05000041050000AF
:10015000000000000000000000000000000000009F
:1001600045050000490500004D050000510500004F
:1001700055050000590500000000000000000000C7
:100180005D0500006105000065050000000000003D
:10019000690500006D05000071050000750500008F
:1001A000790500007D05000081050000850500003F
:1001B000000000000000000000000000000000003F
:1001C000890500008D0500009105000095050000DF
:1001D000990500009D050000A1050000A50500008F
:1001E000A9050000AD0500000000000000000000AF
:1001F00000000000000000000000000000000000FF
:10020000B1050000B5050000B9050000BD050000FE
:10021000C1050000C505000000000000000000004E
:1002200000000000000000000000000000000000CE
:100230000000000000000000C9050000CD0500001E
:10024000D1050000D5050000D9050000DD0500003E
:10025000E1050000E5050000E9050000ED050000EE
:10026000F1050000F5050000F9050000FD0500009E
:100270000106000005060000090600000D0600004A
:100280001106000015060000190600001D060000FA
:100290002106000025060000290600002D060000AA
:1002A0003106000035060000390600003D0600005A
:1002B0004106000045060000490600004D0600000A
:1002C0005106000055060000590600005D060000BA
:1002D000610600006506000000000000000000004C
:1002E000690600006D06000000000000000000002C
:1002F0007106000000000000000000000000000087
:1003000075060000790600007D06000081060000E9
:1003100085060000890600008D0600000000000030
:100320009106000095060000990600009D06000059
:10033000A106000000000000000000000000000016
:10034000A5060000A9060000000000000000000053
:10035000000000000000000000000000000000009D
:10036000000000000000000000000000000000008D
:10037000000000000000000000000000000000007D
:10038000000000000000000000000000000000006D
:10039000000000000000000000000000000000005D
:1003A000000000000000000000000000000000004D
:1003B000000000000000000000000000000000003D
:1003C000000000000000000000000000000000002D
:1003D000000000000000000000000000000000001D
:1003E000000000000000000000000000000000000D
:1003F00000000000000000000000000000000000FD
:10040000DFF80CD000F016FB00480047B91F0000D1
:100410000000022072B6A648A64901600A6882F36D
:100420000888A548804762B6A4480047A44800470A
:10043000A4480047A4480047A4480047A4480047F0
:10044000A4480047A4480047A4480047A4480047E0
:10045000A4480047A4480047A4480047A4480047D0
:10046000A4480047A4480047A4480047A4480047C0
:1006A000A4480047A4480047A4480047FEE7FEE7E7
:1006B00008ED00E000000000A119000001040000A6
:1006C000AF060000AD060000AF060000AF06000058
:1006D000AF060000AF060000AF060000AF06000046
:1006E00081190000AF060000AF060000AF06000051
:1006F000AF060000AF060000AF060000AF06000026
:10070000AF060000AF060000AF060000AF06000015
:10071000AF060000AF060000AF060000AF06000005
:10072000AF060000AF060000AF060000AF060000F5
:10090000AF060000AF060000B9190000E1190000B1
:10091000111A0000411A0000AF060000AF060000E7
:10092000AF060000AF060000AF060000AF060000F3
:10093000AF060000AF060000AF060000AF060000E3
:100940002DE9F05F0546002092469B468846064604
:10095000814640241BE0284641464746224600F097
:1009600059F853465A46C01A914110D311461846B9
:10097000224600F040F82D1A67EB01084F46224648
:100980000120002100F037F817EB00094E41201E2E
:10099000A4F10104DFDC484631462A464346BDE85F
:1009A000F09F10B540EA01040346A40703D009E014
:1009B00010C9121F10C3042AFAD203E011F8014B28
:1009C00003F8014B521EF9D210BD30B50B4601465B
:1009D00000202022012409E021FA02F59D4205D3DE
:1009E00003FA02F5491B04FA02F52844151EA2F188
:1009F0000102F1DC30BD202A04DB203A00FA02F1CA
:100A0000002070479140C2F1200320FA03F31943FC
:100A100090407047202A04DB203A21FA02F000219E
:100A2000704721FA02F3D040C2F1200291400843FE
:100A300019467047064C074D06E0E06840F0010398
:100A400094E8070098471034AC42F6D3FFF7DCFC7B
:100A500010230000302300004EF62450CEF2000098
:100A6000BFF35F8F016821F480310160016F21F0D5
:100A700001010167BFF34F8FBFF36F8F7047000015
:100A80004EF624500521CEF20000BFF35F8F0167C0
:100A9000016841F480310160BFF34F8FBFF36F8F66
:100AA000704700000000000010B540F20C0408215F
:100AB000C2F20004204600F007F804F120000621ED
:100AC00000F002F810BD0000002908BF70474EF684
:100AD00098520438CEF20002013950F8043F42F82F
:100AE000043FF9D17047000070B582B040F2F006C3
:100AF00042F60054C2F20006C0F231147460746110
:100B000000F0AAFE4AF200330120C1F2E11340F2E4
:100B1000012200210091214600F0DEFD4BF200058C
:100B20000120C0F6713540F20122022100912146D8
:100B30002B4600F0B5FC706800F02AFBB0607069CD
:100B4000B56100F09DFAF061B0684108C6E9031193
:100B50004AF2A551C5F65A21316040F20401C2F2B1
:100B60000001086002B070BD80B500F0D1FB00BF8D
:100B700000F076FB0028FBD000F002F880BD0000FA
:100B800080B541F6E07040F2F001C4F20000C2F21C
:100B900000012022FFF705FF80BD000000000000DB
:100BA00010B584B00024C4F22024204600F078F868
:100BB0000520002100F004FC00F046FA01208DF829
:100BC000000001944FF4E130029000F019F8039016
:100BD000684600F0D5F800B1FEE704B010BD000093
:100BE00080B541F20000C4F2202000F059F840F234
:100BF0000510012100F0E4FB80BD000000000000B2
:100C000040F2F000C2F200000069704700000000EE
:100C100080B5FFF769FF00F00FF8FFF7C1FF00F0A4
:100C200003F880BD0000000080B5FFF79DFFFFF7CF
:100C3000D7FF80BD00000000B0B54EF6145400256B
:100C4000CEF20004BFF34F8FBFF36F8F206820F404
:100C500000302060C4F83C52BFF34F8FBFF36F8F5A
:100C6000FFF7FAFEFFF720FFFFF70AFF2068800377
:100C700048BFB0BDBFF34F8FBFF36F8FC4F83C5276
:100C8000BFF34F8FBFF36F8F206840F400302060B8
:100C9000BFF34F8FBFF36F8FB0BD000000000000A7
:100CA00000F1204000F1EF504FEA3031032988BFB6
:100CB000704770B50DA011A214A318A650F821001A
:100CC00052F8214053F8215056F8216000F01CF9E9
:100CD0000121204600F0C4F8284600F015F9012152
:100CE000304600F0BDF8BDE8704070470500540084
:100CF000050056000600590006004C005400000094
:100D000056000000590000004C000000050055008E
:100D10000500570006005A0006004D00550000006F
:100D2000570000005A0000004D00000000000000C5
:100D30002DE9F04184B00DF1040806464046002735
:100D4000CDE9027714460D46019700F0B9FE032065
:100D5000ADF8080030464146224601958DF80A70EC
:100D600000F006FF04B0BDE8F081000000000000C4
:100D700080B500F0C9FF80BD80B501F085F880BD69
:100D800070B558B106780546012E09D12A1D07CA4B
:100D9000FFF7CEFF044638B1204670BD022070BD7B
:100DA0000324012EF8D108E040F210110024C2F211
:100DB000000168680860012EEED140F24400002175
:100DC000C2F200004FF4806200234FF0FF3040F287
:100DD00098000021C2F200004FF4806200234FF01F
:100DE000FF3040F200000021C2F200004FF48062A8
:100DF00000234FF0FF30204670BD000000000000CF
:100E000010B5044600F024F800281CBFC4F34710B6
:100E100010BD42F2962003A1C0F20000CD2201F0E5
:100E200067F800BF2E2E2F2E2E2F2E2E2F2E2E2F78
:100E30002E2E2F2E2E2F647269766572732F677097
:100E4000696F2F6874655F6770696F2E68000000B6
:100E50000021A92838BF0121084670470000000082
:100E600070B500260C460546C4F23016FFF7C8FFE1
:100E700005F01F010122E30702FA01F106EBC0129F
:100E800002D193690B4301E093698B439361A207FD
:100E900004D406EBC012136A8B4303E006EBC012C6
:100EA000136A0B431362220704D406EBC012936E3D
:100EB0000B4303E006EBC012936E8B439366E2068E
:100EC00004D406EBC012D36E8B4303E006EBC012D2
:100ED000D36E0B43D366A20604D406EBC012136F85
:100EE0008B4303E006EBC012136F0B4306EBC010FD
:100EF00013676206426F54BF22EA01011143416742
:100F000070BD00000000000010B50446000CFFF7A3
:100F100077FF0421032301EA944104F0030C41EA22
:100F2000C0101E2140F0804001EAD43140F098709A
:100F30008B40C2689A43C260C4F38102046C24EA05
:100F400003038A401A4302640CFA01F1C268114398
:100F5000C16010BD00000000B0B5A1FB000444F268
:100F60004025C0F20F05002321462A46FFF7E8FC82
:100F7000AC421FD24EF6FC5341F20002CEF2000307
:100F8000CEF200021D6845F080751D6013689B015C
:100F90001BD400235360156845F00105156000BFA0
:100FA00055682D1A73EB0105FAD3106820F0010083
:100FB0001060B0BD42F2542042F26821C0F200003D
:100FC000C0F200018D2200F093FF42F2682103A0DD
:100FD000C0F20001972200F08BFF00BF2128445788
:100FE000542D3E4354524C2026204457545F4354C2
:100FF000524C5F4E4F435943434E545F4D736B29E0
:10100000000000000000000042F23C010028C4F291
:1010100000110A6822F0804218BF02F180420A6083
:10102000704700000000000042F228010028C4F2CE
:1010300000110A6822F0804218BF02F180420A6063
:10104000704700000000000042F26040C4F200104F
:10105000016841F0010101607047000000000000DC
:1010600042F21400C4F20010006800F00300704760
:1010700042F24800C4F20010006800F0030070471C
:1010800010B52DED028B0446FFF7EAFF002804BFE0
:1010900049F28064C0F2980400F05AF8B8B300F046
:1010A00047F8A0B300F03CF800EE104AB8EE408AD2
:1010B00040B100F045F8023000EE100AB8EE400AE8
:1010C00088EE008A00F054F8C0F10F0400F048F8F0
:1010D0000121A1404A1E01EE101A0240E04000EE3C
:1010E000102A02EE100AB8EE411AB8EE400AB8EE25
:1010F000422A80EE010AB6EE001A30EE020A28EE0D
:10110000000A00EE018ABCEEC80A10EE104AFFF792
:10111000AFFF24FA00F0BDEC028B10BD0000000010
:1011200042F21C00C4F20010006800F00100704799
:1011300042F23000C4F200100068C0F34000704773
:1011400042F21C00C4F200100068C0F3C2507047A5
:1011500042F23000C4F20010006800F00100704755
:1011600042F23C00C4F2001000686FF3DF407047A9
:1011700042F23C00C4F200100068C0F3C240704765
:1011800042F24000C4F20010006800F00100704715
:1011900070B52DED028B49F280640546C0F29804CB
:1011A00000F0C2F8002855D100F062F840F00200CB
:1011B000022818BF2C4600F07BF8002842D000F02F
:1011C00067F800283ED000F05BF800EE104AB8EE59
:1011D000408A40B100F064F8023000EE100AB8EE28
:1011E000400A88EE008A00F073F8C0F10F0600F0A4
:1011F00067F8044620FA06F500F07AF820B100EE10
:10120000105AB8EE400A13E0012002EE105AB04026
:10121000411E01EE100A2140B8EE422A00EE101ADB
:10122000B8EE411AB8EE400A80EE010A30EE020A2A
:1012300028EE000AB6EE001A00EE018ABCEEC80ADB
:1012400010EE104A00F05CF820B100F059F84000B0
:10125000B4FBF0F42046BDEC028B70BD0000000032
:1012600042F6E800C4F20010006800F00100704788
:1012700042F21000C4F20010006800F00300704752
:1012800042F21C00C4F200100068C0F38060704796
:1012900042F21C00C4F200100068C0F34000704726
:1012A00042F21C00C4F200100068C0F3C250704744
:1012B00042F21C00C4F20010006800F00100704708
:1012C00042F22800C4F2001000686FF3DF4070475C
:1012D00042F22800C4F200100068C0F3C240704718
:1012E00042F22C00C4F20010006800F001007047C8
:1012F00042F22800C4F200100068C0F3807070470A
:1013000042F24400C4F20010006800F03F00704751
:1013100042F6E400C4F20010016841F001010160EE
:10132000704700000000000042F25C00C4F20010B0
:10133000006800F00100704742F230010128C4F259
:1013400000110A6822F0006218BF02F100620A6010
:10135000704700000000000042F25C00C4F2001080
:10136000016841F0020101607047000000000000C8
:1013700042F21C010128C4F200110A6822F0006246
:1013800018BF02F100620A60704700000000000010
:1013900042F21401C4F200110A6860F301020A600B
:1013A000704700000000000042F21001C4F200117A
:1013B0000A6860F301020A60704700000000000044
:1013C0007C22012302EA80020029C0F3042003FAF0
:1013D00000F141F6AC10C4F20010135814BF1943C9
:1013E00023EA01011150704710B5022815D00128D9
:1013F00022D0002818BF10BD002000F0ADFA40F246
:1014000004044FF49670C2F200042168FFF7A4FDB3
:101410000020FFF7C9FF216807E00220FFF7C4FFA3
:1014200040F20400C2F2000001684FF49670FFF72A
:1014300093FD00F085FA10BD00F002F810BD000029
:1014400010B5012000F088FA40F204044FF49670C1
:10145000C2F200042168FFF77FFD0120FFF7A4FF1F
:10146000FFF762FF002808BF10BD00BFFFF774FF41
:1014700021684FF49670FFF76FFD0120FFF794FF8E
:10148000FFF752FF0028F1D110BD0000000000005E
:1014900042F24801C4F200110860704700000000E9
:1014A0002DE9F041C0B21D4617460E46DDF8188002
:1014B000FFF76EFF4046FFF7EBFF002000F0ACF8AF
:1014C000F80702D10120BDE8F08149F600004EF690
:1014D0008051CFF27660C1F23E71284400248842E8
:1014E00000F28380B542C0F08080380AC7B2002F76
:1014F0007BD04AF200310020C1F2E1118D4288BF59
:10150000012000F0C9F80020FFF7C2FF0120FFF71B
:1015100013FF002000F09CF8002000F0CDF8012F10
:1015200003D1002000F068F805E0012000F064F825
:10153000B81E00F07DF800F0A3F800EE106A01EE8E
:10154000107A6800B8EE400AB8EE411A80EE010A3F
:1015500001EE100AB8EE411A81EE000AB8EE001A48
:1015600030EE010ABCEEC01A11EE100AFF2802D9B3
:101570000020BDE8F081B6EEC01A30EE410A9FEDC2
:101580001C1A20EE010ABCEEC00A10EE104A44EA12
:10159000C02000F069F8B4FA84F04009FFF734FD88
:1015A000012000F089F840F204040A20C2F200048D
:1015B0002168FFF7D1FC012000F04AF821680220E1
:1015C000FFF7CAFC0020FFF7B7FE21682820FFF7CD
:1015D000C3FC00BFFFF7D4FD0028FBD04046FFF757
:1015E00057FF0120012400F017F82046BDE8F081E4
:1015F000000000450000000042F230010028C4F263
:1016000000110A6822F0806218BF02F180620A604D
:10161000704700000000000042F230010028C4F2D0
:1016200000110A6822F0020218BF02320A607047F5
:1016300042F2300100F00700C4F200110A6822F003
:1016400060720A600A6842EAC05008607047000091
:1016500042F230010028C4F200110A6822F00102AF
:1016600018BF01320A60704742F23C01C4F2001117
:101670000A6860F312020A60704700000000000070
:1016800042F23C000422C4F20010016862F3D5412A
:10169000016070470000000042F230010028C4F2EF
:1016A00000110A6822F4800218BF02F580020A6065
:1016B000704700000000000042F230010028C4F230
:1016C00000110A6822F4803218BF02F580320A60E5
:1016D00070470000000000002DE9F0411D4617464C
:1016E0000E460446FFF720FE10B10020BDE8F08151
:1016F000E0B2DDF81880FFF777FE404600F018F9F9
:10170000002000F0B5F8F80702D10120BDE8F08113
:1017100049F600004EF68051CFF27660C1F23E717C
:1017200028440024884200F28280B542C0F07F80C5
:10173000380AC7B2002F7AD04AF200310020C1F235
:10174000E1118D4288BF012000F0D2F8002000F0A6
:10175000EFF80120FFF70CFE002000F0A5F80020B4
:1017600000F0D6F8012F03D1002000F065F805E065
:10177000012000F061F8B81E00F086F800F0ACF827
:1017800000EE106A01EE107A6800B8EE400AB8EE7A
:10179000411A80EE010A01EE100AB8EE411A81EEFC
:1017A000000AB8EE001A30EE010ABCEEC01A11EEC3
:1017B000100AFF2802D90020BDE8F081B6EEC01A59
:1017C00030EE410A9FED1B1A20EE010ABCEEC00A62
:1017D00010EE104A44EAC02000F072F8B4FA84F027
:1017E0004009FFF721FC012000F092F840F20404C8
:1017F0000A20C2F200042168FFF7AEFB012000F0CE
:1018000053F821680220FFF7A7FB0020FFF7B0FD87
:1018100021682820FFF7A0FBFFF762FD0028FBD01E
:10182000404600F085F80120012400F021F8204610
:10183000BDE8F0810000004542F21C010028C4F21E
:1018400000110A6822F0806218BF02F180620A600B
:10185000704700000000000042F21C00C4F20010BB
:10186000016821F0020101607047000000000000E3
:1018700042F21C010028C4F200110A6822F00202A0
:1018800018BF02320A60704742F21C0100F00700E4
:10189000C4F200110A6822F060720A600A6842EA23
:1018A000C05008607047000042F21C010028C4F2DA
:1018B00000110A6822F0010218BF01320A60704765
:1018C00042F22801C4F200110A6860F312020A60B1
:1018D000704700000000000042F228000422C4F219
:1018E0000010016862F3D5410160704700000000FC
:1018F00042F21C010028C4F200110A6822F480029E
:1019000018BF02F580020A60704700000000000066
:1019100042F21C010028C4F200110A6822F480324D
:1019200018BF02F580320A60704700000000000016
:1019300042F24401C4F20011086070470000000048
:1019400042F21000C4F20010016841F01001016081
:10195000704700000000000028B1012818BF704740
:101960006FF0100001E06FF0080042F21001C4F2C5
:1019700000110A6810400860704700000000000075
:1019800040F2080040F2EC01C2F20000C2F2000195
:1019900000780A6810440860BFF34F8F704700005A
:1019A0004EF68850CEF20000016841F470010160EB
:1019B000704700000000000080B540F2A410C2F2A1
:1019C000000002683AB140F214110020C2F2000196
:1019D000C4F220209047BFF34F8F80BD000000006D
:1019E00080B540F2A410C2F20000426852B140F249
:1019F0001410C2F2000000F1240141F20000C4F210
:101A000020209047BFF34F8F80BD000000000000F2
:101A100080B540F2A410C2F20000826852B140F2D8
:101A20001410C2F2000000F1480142F20000C4F2BA
:101A300020209047BFF34F8F80BD000000000000C2
:101A400080B540F2A410C2F20000C26852B140F268
:101A50001410C2F2000000F16C0143F20000C4F265
:101A600020209047BFF34F8F80BD00000000000092
:101A700000281FBF016F21F001010167704742F28A
:101A8000DA2042F2E621C0F20000C0F2000140F28A
:101A9000095200F02DFA000000281FBF016921F053
:101AA00010010161704742F2DA2042F2E621C0F2F1
:101AB0000000C0F2000140F2ED4200F019FA00000F
:101AC00000281FBF4FF4E1310160032181801FBF57
:101AD000002181710122A0F807201CBF41727047CC
:101AE00042F2DF2042F2B021C0F20000C0F2000159
:101AF000972200F0FDF9000000281CBF40697047E4
:101B000042F2DA2042F2E621C0F20000C0F2000107
:101B10004FF4B57200F0ECF900281EBFD0F8800039
:101B2000C0B2704742F2DA2042F2E621C0F2000071
:101B3000C0F2000140F2351200F0DAF900000000B6
:101B400000281FBFD0F8A41021F00101C0F8A41094
:101B5000704742F2DA2042F2E621C0F20000C0F201
:101B6000000140F25E5200F0C3F9000000000000E6
:101B700070B5002840D00D46002948D004461646CE
:101B800000F052F810B14FF4817070BD2A68204601
:101B9000314600F001F9002818BF70BD68792A7934
:101BA000AB79411E02F00300032963F382000AD8D7
:101BB000DFE801F002040608083004E0183002E013
:101BC000283000E03830E0602046FFF751FF204623
:101BD000FFF762FF2046FFF7B3FFE87948B1687A64
:101BE000297A8001C0B261F305100730A06000209F
:101BF00070BD0020A06070BD42F2DA2042F2B02138
:101C0000C0F20000C0F20001A52200F071F942F21A
:101C1000DF2042F2B021C0F20000C0F20001A62293
:101C200000F066F90000000000281EBFC06F00F041
:101C30000100704742F2DA2042F2E621C0F20000D1
:101C4000C0F2000140F2E51200F052F9000000007D
:101C500028B1806810F0C00018BF0120704742F220
:101C6000DA2042F2E621C0F20000C0F200014FF497
:101C7000937200F03DF9000010B580B10446FFF703
:101C8000E7FF40B12046FFF747FF014600208029CB
:101C900038BF012010BD204600F00EF810BD42F202
:101CA000DA2042F2E621C0F20000C0F2000140F268
:101CB000AF1200F01DF9000000281EBF4069C0F3FC
:101CC0004010704742F2DA2042F2E621C0F20000F2
:101CD000C0F200014FF4C67200F00AF900000000E3
:101CE00000281EBF4069C0F38010704742F2DA201E
:101CF00042F2E621C0F20000C0F2000140F29D1263
:101D000000F0F6F80000000070B560B30E46B1B305
:101D1000154632B3044600BF2046FFF7EDFEC1066C
:101D2000FAD082070DD400290ED441070FD4000742
:101D300010D4206806F8010B013D0021002069B194
:101D40000EE040F2031007E04FF4837004E04FF41C
:101D5000827001E040F20510012109B9002DDBD1AC
:101D600070BD002070BD42F2DA2042F2B021C0F214
:101D70000000C0F2000140F2611200F0B9F842F236
:101D8000AB2042F2B021C0F20000C0F200014FF4DB
:101D9000B17200F0ADF80000B0B5002847D00029BE
:101DA00050D0002A56D0044601EB810040004FF687
:101DB000F5751101C0F20905B0FBF1F14B1FAB4203
:101DC00002D94FF48070B0BD4CF6CD430531CCF64E
:101DD000CC43A1FB0315ED082901B0FBF1F0053060
:101DE000A0FB0301A2EBD100B2EBD10F38BFC2EBD5
:101DF000D10064214843B0EB420F02D940F20110F8
:101E0000B0BD2046FFF710FF10B14FF48170B0BD98
:101E1000E06840F08000E060E8B22060C5F3072091
:101E20006060E06820F08000E0600020B0BD42F219
:101E3000DA2042F2B021C0F20000C0F20001FE221E
:101E400000F056F842F2B0210BA0C0F20001FF22D0
:101E500000F04EF842F2B02103A0C0F200014FF4AE
:101E6000807200F045F800BF62617564526174656C
:101E7000203E20305500000066726571496E487A38
:101E8000203E20305500000070B5B0B10E4601B3C1
:101E90000446154652B100BF2046FFF7EDFE00286C
:101EA000FAD016F8010B013D2060F5D12046FFF76E
:101EB00017FF0028FAD0002070BD42F2DA2042F26B
:101EC000B021C0F20000C0F200014FF4977200F0A0
:101ED0000FF842F2AB2042F2B021C0F20000C0F293
:101EE000000140F22F1200F003F800000000000093
:101EF000064609A014460D4600F0ACF80AA031468B
:101F000000F0A8F80CA0294600F0A4F80EA0214685
:101F100000F0A0F800BEFDE74173736572742045C0
:101F200052524F520D0A00000945787072203A2033
:101F300025730D0A000000000946696C65203A20EF
:101F400025730D0A00000000094C696E65203A20D7
:101F500025640D0A0000000080B582B040F2101028
:101F6000C2F20000006858B100218DF807100DF191
:101F700007010122FEF7FCFE9DF8070002B080BDBC
:101F80004FF0FF3002B080BD10B582B040F21011AA
:101F9000C2F200010B684BB104468DF807000DF149
:101FA000070101221846FEF7E7FE01E04FF0FF347B
:101FB000204602B010BD0000FEF72AFE0DA000F082
:101FC00049F80DA000F046F811A000F043F81DA05C
:101FD00000F040F840F2440440F29805C2F20004D8
:101FE000C2F20005204600F031F9C0B2294600F0E7
:101FF0002FF9F7E70D0A000048656C6C6F20576FEA
:10200000726C64204578616D706C653A0D0A000051
:10201000094465766963652077696C6C2073656E29
:102020006420746865207265636569766564206301
:10203000686172616374657273206261636B0D0A1B
:1020400000000000506C6561736520696E707574E6
:102050003A0000000FB4054B10B503A9044A0298DA
:1020600000F018F810BC5DF814FB0000891F000098
:102070009800002002E008C8121F08C1002AFAD107
:1020800070477047002001E001C1121F002AFBD1F8
:10209000704700002DE9FF4F8BB09A460F4605466A
:1020A000002606E025280BD052460D9990476D1C5E
:1020B000761C28780028F5D10FB03046BDE8F08FA7
:1020C0000024A0460122604900E0044315F8013FC6
:1020D000203B02FA03F00842F7D128782E2817D1C6
:1020E00015F8010F44F004042A280ED06FF02F02D7
:1020F0002878A0F1300109290AD808EB880102EB01
:10210000410100EB01086D1CF2E757F8048B6D1CD0
:10211000287869283ED006DC0028CDD063280BD073
:10212000642804D136E0732810D075284BD052466D
:102130000D999047761C85E017F8040B8DF8000088
:1021400000208DF80100E946012003E057F8049BC8
:102150004FF0FF3061074FF0000401D40AE0641C27
:1021600044450DDA8442FADB19F804100029F6D14F
:1021700006E0641C8442FCDB19F804100029F8D145
:10218000264404E019F8010B52460D999047641E4D
:10219000F8D257E001CF4FF00A0B002802DA404294
:1021A0002D2102E0210504D52B218DF824100121D9
:1021B00003E0E10705D02021F7E70DF120090891A0
:1021C0000CE00021F9E701CF4FF00A0BF9E759467F
:1021D000FEF7FBFB01F1300209F8012D0028F6D1D2
:1021E000ADEB090000F1200B600701D44FF00108AE
:1021F000D84502DDA8EB0B0000E00020804600245B
:1022000006E009A85246005D0D999047641C761CB3
:1022100008988442F5DB04E0302052460D9990473F
:10222000761CB8F10001A8F10108F5DC05E019F809
:10223000010B52460D999047761CBBF10001ABF1A2
:10224000010BF4DC6D1C34E709280100FFF784BEA4
:10225000FFF79ABE7469636B73203C3D2055494E6D
:102260005433325F4D4158002E2E2F2E2E2F2E2EFE
:102270002F2E2E2F2E2E2F2E2E2F64726976657202
:10228000732F636F6D6D6F6E2F6874655F636F6D15
:102290006D6F6E2E63004750494F5F697350696ED2
:1022A00056616C69642870696E290064617461000C
:1022B0002E2E2F2E2E2F2E2E2F2E2E2F2E2E2F2E39
:1022C0002E2F647269766572732F756172742F6830
:1022D00074655F756172742E63006261736500637B
:1022E0006F6E666967002E2E2F2E2E2F2E2E2F2E0C
:1022F0002E2F2E2E2F2E2E2F647269766572732F3D
:10230000756172742F6874655F756172742E6800F0
:102310003023000000000020440000007420000072
:10232000742300004400002070010000842000009D
:1023300000000000809698000100000010000000DE
:102340003F0000101100000021000B0312002000CC
:1023500021000C031300300027000203140020109A
:1023600021000C011500002021000B031600004085
:04237000390010130D
:0400000500000401F2
:00000001FF
